{
  "contractName": "TodoList",
  "abi": [
    {
      "constant": true,
      "inputs": [
        {
          "internalType": "uint256",
          "name": "",
          "type": "uint256"
        }
      ],
      "name": "list",
      "outputs": [
        {
          "internalType": "string",
          "name": "",
          "type": "string"
        }
      ],
      "payable": false,
      "stateMutability": "view",
      "type": "function"
    },
    {
      "constant": true,
      "inputs": [],
      "name": "numberOfTodos",
      "outputs": [
        {
          "internalType": "uint256",
          "name": "",
          "type": "uint256"
        }
      ],
      "payable": false,
      "stateMutability": "view",
      "type": "function"
    },
    {
      "constant": false,
      "inputs": [
        {
          "internalType": "string",
          "name": "todo",
          "type": "string"
        }
      ],
      "name": "addTodo",
      "outputs": [
        {
          "internalType": "bool",
          "name": "",
          "type": "bool"
        }
      ],
      "payable": false,
      "stateMutability": "nonpayable",
      "type": "function"
    },
    {
      "constant": false,
      "inputs": [
        {
          "internalType": "uint256",
          "name": "index",
          "type": "uint256"
        }
      ],
      "name": "deleteTodo",
      "outputs": [],
      "payable": false,
      "stateMutability": "nonpayable",
      "type": "function"
    }
  ],
  "bytecode": "0x608060405234801561001057600080fd5b506105ab806100206000396000f3fe608060405234801561001057600080fd5b506004361061004c5760003560e01c80636e3c67381461005157806380c9419e1461007f57806395ffebf514610126578063b9d7bf64146101f9575b600080fd5b61007d6004803603602081101561006757600080fd5b8101908080359060200190929190505050610217565b005b6100ab6004803603602081101561009557600080fd5b8101908080359060200190929190505050610340565b6040518080602001828103825283818151815260200191508051906020019080838360005b838110156100eb5780820151818401526020810190506100d0565b50505050905090810190601f1680156101185780820380516001836020036101000a031916815260200191505b509250505060405180910390f35b6101df6004803603602081101561013c57600080fd5b810190808035906020019064010000000081111561015957600080fd5b82018360208201111561016b57600080fd5b8035906020019184600183028401116401000000008311171561018d57600080fd5b91908080601f016020809104026020016040519081016040528093929190818152602001838380828437600081840152601f19601f8201169050808301925050505050505091929192905050506103f0565b604051808215151515815260200191505060405180910390f35b610201610444565b6040518082815260200191505060405180910390f35b600081101580156102285750600a81105b61029a576040517f08c379a00000000000000000000000000000000000000000000000000000000081526004018080602001828103825260138152602001807f496e646578206f7574206f6620626f756e64730000000000000000000000000081525060200191505060405180910390fd5b60008190505b6001600a54038110156102f757600060018301600a81106102bd57fe5b01600083600a81106102cb57fe5b0190805460018160011615610100020316600290046102eb92919061044a565b508060010190506102a0565b50600a600081546001900391905081905550604051806020016040528060008152506000600a54600a811061032857fe5b01908051906020019061033c9291906104d1565b5050565b600081600a811061034d57fe5b016000915090508054600181600116156101000203166002900480601f0160208091040260200160405190810160405280929190818152602001828054600181600116156101000203166002900480156103e85780601f106103bd576101008083540402835291602001916103e8565b820191906000526020600020905b8154815290600101906020018083116103cb57829003601f168201915b505050505081565b6000600a80541415610405576000905061043f565b816000600a54600a811061041557fe5b0190805190602001906104299291906104d1565b50600a6000815460010191905081905550600190505b919050565b600a5481565b828054600181600116156101000203166002900490600052602060002090601f016020900481019282601f1061048357805485556104c0565b828001600101855582156104c057600052602060002091601f016020900482015b828111156104bf5782548255916001019190600101906104a4565b5b5090506104cd9190610551565b5090565b828054600181600116156101000203166002900490600052602060002090601f016020900481019282601f1061051257805160ff1916838001178555610540565b82800160010185558215610540579182015b8281111561053f578251825591602001919060010190610524565b5b50905061054d9190610551565b5090565b61057391905b8082111561056f576000816000905550600101610557565b5090565b9056fea265627a7a7231582010cd52c44ea06d592f5e02449cbb7ba5d86e0e3d6d6df7c0d8748c082c72f37164736f6c634300050c0032",
  "source": "pragma solidity ^0.5.0;\n\ncontract TodoList{\n  string[10] public list;\n  uint public numberOfTodos;\n\n  function addTodo(string memory todo) public returns (bool) {\n    if(numberOfTodos == 10){\n      return false;\n    }\n    list[numberOfTodos] = todo;\n    ++numberOfTodos;\n    return true;\n  }\n\n  function deleteTodo(uint index) public {\n    require(index >= 0 && index < 10, \"Index out of bounds\");\n    for (uint i = index; i < numberOfTodos - 1; ++i){\n      list[index] = list[index + 1];\n    }\n    --numberOfTodos;\n    list[numberOfTodos] = \"\";\n  }\n}\n",
  "sourcePath": "/home/godcrampy/Code/Working/todo-list-ethereum/contracts/TodoList.sol",
  "compiler": {
    "name": "solc",
    "version": "0.5.12+commit.7709ece9.Emscripten.clang"
  },
  "schemaVersion": "3.0.19",
  "updatedAt": "2019-12-17T08:51:24.924Z",
  "networkType": "ethereum",
  "devdoc": {
    "methods": {}
  },
  "userdoc": {
    "methods": {}
  }
}